:020000040000FA
:040000008A11052834
:040004000034003490
:020008008F2A3D
:06000A00831203138501BF
:1000100086018701880108168509860987098316E4
:100020000313023085007B308600D73087002F30E5
:100030008800003094000F309F002630980019305F
:100040009900D8308100831203133030940090302F
:10005000980020308B00D401CD01CE016430D10056
:1000600000231021A601A7015530A000EC20332168
:100070003D2145214D213C28B820BD202008A1006C
:10008000F13A03196C282108F23A03198228210851
:10009000F33A031984282108F43A03198628210821
:1000A000F53A031988282108F63A03198A28210805
:1000B000F73A03198C282108F83A03198E282108E9
:1000C000F93A031990282108FA3A031992282108CD
:1000D000FB3A031995283C28B821FF30A600A70059
:1000E000B903390F7428B803C220BD20260838068A
:1000F000031D742827083906031D7428B90FB80397
:10010000B80A3C2851223C284D213C2855213C2846
:1001100062213C2870213C2845213C2889213C282B
:10012000A9203C28D30199213C2897203C28A701ED
:10013000A601A709A609A001A0090816E92008122E
:100140002708FF3A031D9D282608FF3A031D9D2816
:100150000800A701A601A709A609C220BD202708FB
:10016000FF3A031DAD282608FF3A031DAD280800FD
:100170008C1EB8281A08A00008000C1EBD282008F4
:1001800099000800A70FA603A60A86130330930060
:10019000260883160313141CCB2883120313930021
:1001A000270883160313141CD32883120313930008
:1001B00083160313141CDA28831203139301831686
:1001C0000313141CE128831203131308A0008617DD
:1001D0000800A70FA603A60A86130230930026087C
:1001E00083160313141CF2288312031393002708A9
:1001F00083160313141CFA28831203139300200898
:1002000083160313141C022983120313930083160D
:100210000313141C092983120313130886170800FB
:10022000861301309300003083160313141C162923
:1002300083120313930083160313141C1D298312C6
:100240000313130886170800A3000830AC00A31B93
:100250008817A31F8813A30D0817000000000813B8
:10026000AC0B27290800051108138511383024210B
:100270007E210A30D1000023080085110F3024218F
:100280007E210A30D100002308008511013024218D
:100290007E210A30D100002308008511033024217B
:1002A0007E210530D100002308004D212830AB000D
:1002B0001030242185117E210230D1000023AB0BA8
:1002C0005A2908004D212030851524211430AB0017
:1002D0007E210230D1000023AB0B68294D2108009C
:1002E00055212030851524211430AB007E210230A9
:1002F000D1000023AB0B762955210800051500001D
:1003000000000000000000000000000000000511D7
:1003100008008313B03084000830AB008515000856
:1003200024217E210230D1000023840AAB0B8F29C7
:100330000800D201851508308A000020A100003095
:100340008A0021080319080024217E210230D100EF
:100350000023D20A9B29D20108308A000020A00085
:1003600000308A00A00803190800BD20D20AAC2979
:10037000FF30A600A700D414D521D410EA21A70F7E
:10038000A603A60A2608B8002708B900A60103306C
:10039000A7008313B03084000830AA00C2202008D0
:1003A0008000840AAA0BCE2908008030AB002222EC
:1003B0002008553A031DDF29AB0BD7290800AB0BEA
:1003C000E229472A1C222008553A031D472AAB0B75
:1003D000D729472A2222201C472AE9202222E92065
:1003E0002222E9202222E9202008AB002222E92053
:1003F000AB0BF6292222E9202222E920D521222254
:10040000E9202222E9202222200F0E2AE92022229E
:10041000E9202222E9202222E9200800E9202222E4
:10042000E9202008AB002222E920AB0B132A22226C
:10043000E9202222E920FF290830AA000608023A12
:10044000A1002E2A0830AA000608A100A501A00CD0
:10045000A01306082106A200A21C292A4B22A50AE5
:100460002508163C0318372AD41C472A222A0608D6
:100470002106A200A2182E2A2508083C0318342AB7
:100480000F30A502A51BA017AA0B242A0034831243
:10049000031705144A2A00000000000000000000B5
:1004A0000800A101BA01FF30A600A7005530A00046
:1004B0007F30AA00810100000B118B173A1D5E2AC4
:1004C0003A19602AAA0B5E2A1630AA00C2203A1DE9
:1004D000672A3A19692AAA0B662A8B13C4227F302D
:1004E000AA008101A10100000B118B173A1D762A89
:1004F0003A19782AAA0B762AC2203A1D7D2A3A197F
:100500007F2A38082606A300A30AA30B7C2A3908F1
:100510002706A300A30AA30B7C2A8B130800A400C0
:100520000B113B3081002118A42AA118AB2A2119F4
:10053000B32AA119B72A043086062008A200BA01FE
:100540000130A10024080900043022188606023078
:10055000A10024080900043086062218B92A0430B4
:10056000A100240809000830A10024080900043073
:1005700086060130A100A20CBA0ABA1DC22ABA012D
:100580002008A200240809002030AA003630AB0061
:100590005F30A900A90BCA2AAB0BC82AAA0BC62A2E
:1005A00008002008930083160313141CD52A831215
:1005B00003131308A00008008A1520080F394520EE
:1005C000BC00200E0F394520BB008A1108001030F6
:1005D000AD00A301CE1B23144E080139A306A30CC2
:1005E000CD0CCE0CAD0BE92A0800541CFB2A4E089A
:1005F000A00054100800E72254144D08A000080081
:100600001430A9001030A800A80B042BA90B022B52
:10061000D10B002B0800AA01AB012B080F39031DD9
:10062000142B0A30A000BD20F522DC223B08A000DC
:10063000BD203C08A000BD20F522DC223B08A00024
:10064000BD203C08A000BD20AB0B0D2BAA0B0C2B32
:100650000800D4115412C808031D312BD4155416A8
:1006600008004708023C031C382BD4155416080018
:10067000460838060319412B380846020318D415DA
:100680000800B9080319D415080005130530A000A7
:10069000D122051708008313B03084000830AD0064
:1006A00005132F30A000D1222F30A000D122000846
:1006B000A000D122840AAD0B572BA001D12205172F
:1006C000080005133230A000D122051708000513D9
:1006D0003630A000D1220130A000D1220517080039
:1006E00005133A30A000D1224008A000D1223F08D3
:1006F000A000D1220517080005133B30A000D1222D
:100700000517080005132730A000D122A001D1222F
:100710002008C2070318C10AAD00A001D122E920B8
:10072000AD0B8D2B0517080005130C30A000D1224E
:100730006830A000D122A001D1222008C000A00171
:10074000D1222008BF00A001D122A001D12205178B
:10075000080005132008A4000630A000D1222408B8
:10076000A000D122A001D1220517080005133430C2
:10077000A000D1220517080005133C30A000D122AB
:100780004008A000D1223F08A000D1220517080090
:1007900005133D30A000D1220517080005132230B3
:1007A000A000D122A001D122051708000513313085
:1007B000A000D1220517080005133030A000D12277
:1007C0000517080005131530A000D1220530A00040
:1007D000D1220517080005131530A000D1220630DC
:1007E000A000D1220517080005131530A000D12262
:1007F0000730A000D1220517080005130130A00022
:10080000D122A001D12205170800D00ACF0A013059
:10081000D1000023CE234C08A00603190800CF0BFB
:10082000072CD00B072C5415080005133E30A000F0
:10083000D12205171430CC00D0011030CF00052490
:1008400005132730A000D122A001D122A001D1227E
:100850002008C300A001D1222008C400A001D12299
:100860002008C500A001D12205170310C30DC40D37
:10087000C50D080005133E30A000D1220517143025
:10088000CC00D0011030CF00052405132730A00084
:10089000D122A001D122A001D1222008C900A001AB
:1008A000D1222008CA00A001D1222008CB00A0013B
:1008B000D122A001D1222008C600A001D122200807
:1008C000C700A001D1222008C800A001D12205172D
:1008D0000310C90DCA0DCB0D0310C60DC70DC80DF1
:1008E0000800CE01CD015410B623B830CF000B3034
:1008F000D0001430CC0005240430AF00BD01BE018F
:100900008030BF00C001BC230B30D000B830CF0016
:100910001E30CC00052405132D30A000D122A001EB
:10092000D1222008AE00F522D122BE0FBD03BD0AA0
:100930003D083F06031DA02C3E0840060319A22CCB
:10094000AE0B932C05170B30D000B830CF001E3003
:10095000CC0005243D083F06031DB22C3E0840068E
:100960000319BB2CC8230B30D000B830CF001E3089
:10097000CC0005248B2CC8230B30D000B830CF001E
:100980001430CC000524AF0B7E2C67230B30D00035
:10099000B830CF001430CC00052408004B231030B1
:1009A000CF00D0011430CC000524B623B830CF00DE
:1009B0000B30D0001430CC000524BD01BE01380836
:1009C000BF003908C000BC230B30D000B830CF00C6
:1009D0001E30CC0005247F253E08A7003D08A60058
:1009E000A703031CA603832505132D30A000D122E5
:1009F000A001D1222008AE008C25D122BE0FBD035C
:100A0000BD0A3D083F06031D092D3E084006031997
:100A10000B2DAE0BFC2C05170B30D000B830CF00DF
:100A20001E30CC0005243D083F06031D1B2D3E084B
:100A300040060319242DC8230B30D000B830CF0056
:100A40001E30CC000524EB2CC8230B30D000B8306E
:100A5000CF001430CC00052467230B30D000B83011
:100A6000CF001430CC0005240800FF30A600A700FA
:100A70007023D0018030CF001D30CC000524541DE0
:100A8000672D82230130D100002340084206031D58
:100A90004D2D3F0841060319552D7C23D001FF3011
:100AA000CF001D30CC000524412D4008B9003F087F
:100AB000B80005133630A000D122A001D1220517BD
:100AC000D0018030CF001430CC000524080020086D
:100AD000A200AB010430D300AB212030A000BD2028
:100AE0004C08A000DC223B08A000BD203C08A00070
:100AF000BD200A30A000BD202208A00008008313FA
:100B0000A03084000800AF01C2208925AF0B842DDE
:100B10000800200880008E2D0008A000840A040828
:100B20007F39703A031D0800841B9C2D831B992D6F
:100B3000472A903084000800831BA22D83171030B1
:0C0B4000840008008313A030840008002B
:1010000053088207092817281E2825282C28372846
:101010003E28520882075434413450344534203439
:10102000523445344134443459342E340034520857
:1010300082074C344F344134443400345208820720
:101040005334413456344534003452088207533403
:1010500045344E3444340034520882075434493401
:101060004D3445344F34553454343A3400345208F6
:1010700082074E34453458345434003452088207C1
:101080004234413443344B340034820730343134F9
:101090003234333434343534363437343834393404
:0C10A00041344234433444344534463477
:10120000071000004C2120180714201C07105C2137
:10121000A0180714A01C07105C2120190714201D1A
:1012200007105C21A0190714A01D07105C21201ACB
:101230000714201E07105C21A01A0714A01E071017
:101240005C21201B0714201F07105C21A01B071422
:10125000A01F07105C2107144C210800A00187186B
:101260002F2953214C21871820144C218718A014B2
:101270004C21871820154C218718A0154C21871860
:1012800020164C218718A0164C21871820174C21B6
:101290008718A017532108005230AA000000000050
:1012A000AA0B4E2908001D30AA0000000000000013
:1012B0000000AA0B552908006630A4000000A40B0A
:1012C0005E290800810100000B118B1708008B13A9
:0212D000080014
:02400E00233F4E
:02401000BC3FB3
:00000001FF
